{
    "contractName": "Counter",
    "abi": [
        {
            "inputs": [
                {
                    "internalType": "uint256",
                    "name": "x",
                    "type": "uint256"
                }
            ],
            "name": "add",
            "outputs": [],
            "stateMutability": "nonpayable",
            "type": "function"
        },
        {
            "inputs": [],
            "name": "get",
            "outputs": [
                {
                    "internalType": "uint256",
                    "name": "",
                    "type": "uint256"
                }
            ],
            "stateMutability": "view",
            "type": "function"
        }
    ],
    "bytecode": "608060405234801561001057600080fd5b5060e78061001f6000396000f3fe6080604052348015600f57600080fd5b506004361060325760003560e01c80631003e2d21460375780636d4ce63c146048575b600080fd5b604660423660046074565b605d565b005b60005460405190815260200160405180910390f35b80600080828254606c9190608c565b909155505050565b600060208284031215608557600080fd5b5035919050565b6000821982111560ac57634e487b7160e01b600052601160045260246000fd5b50019056fea26469706673582212203221d269d7ba8276a43db2271b6b1ff21f26cf8681d807aa891aa2254c00004264736f6c63430008090033",
    "sourcePath": "/Users/channer/Projects/web3camp/w1-1/contracts/Counter.sol",
    "compiler": {
        "name": "solc",
        "version": "0.8.9+commit.e5eed63a"
    },
    "functionHashes": {
        "add(uint256)": "1003e2d2",
        "get()": "6d4ce63c"
    },
    "gasEstimates": {
        "creation": {
            "codeDepositCost": "46200",
            "executionCost": "99",
            "totalCost": "46299"
        },
        "external": {
            "add(uint256)": "24496",
            "get()": "2268"
        }
    }
}